:020000040800F2
:10000000180E0020C50200080F300008012C00085F
:100010000D3000088D120008253500080000000092
:10002000000000000000000000000000693400082B
:100030008F12000800000000113000086B34000827
:10004000DF020008DF020008DF020008DF0200080C
:10005000DF020008DF020008DF020008DF020008FC
:10006000DF020008DF020008DF020008DF020008EC
:10007000DF020008DF020008DF020008DF020008DC
:10008000DF020008DF020008DF020008DF020008CC
:10009000DF020008DF020008DF020008DF020008BC
:1000A000DF020008DF020008DF020008DF020008AC
:1000B000DF020008DF020008DF020008DF0200089C
:1000C000DF020008DF020008DF020008DF0200088C
:1000D000DF020008DF020008DF020008DF0200087C
:1000E000DF020008DF020008DF020008DF0200086C
:1000F000DF020008DF020008DF020008DF0200085C
:10010000DF020008DF020008DF020008DF0200084B
:10011000DF020008DF020008DF020008DF0200083B
:10012000DF020008DF020008DF020008DF0200082B
:10013000DF020008DF020008DF020008DF0200081B
:10014000DF020008DF020008DF020008DF0200080B
:10015000DF020008DF020008DF020008DF020008FB
:10016000DF020008DF020008DF020008DF020008EB
:10017000DF020008DF020008DF02000800000000C4
:10018000DF020008DF020008DF020008DF020008CB
:10019000DF020008DF020008DF020008DF020008BB
:1001A000DF020008DF020008DF020008DF020008AB
:1001B000DF020008DF020008DF020008DF0200089B
:1001C000DF020008DF02000800000000DF02000874
:1001D000DF020008DF020008DF020008DF0200087B
:1001E000DF020008DF020008DF020008DF0200086B
:1001F000DF020008DF02000800F002F800F052F809
:100200000AA090E8000C82448344AAF10107DA4571
:1002100001D100F047F8AFF2090EBAE80F0013F071
:10022000010F18BFFB1A43F001031847944F000059
:10023000B44F0000103A24BF78C878C1FAD85207EA
:1002400024BF30C830C144BF04680C607047000050
:100250000023002400250026103A28BF78C1FBD8CF
:10026000520728BF30C148BF0B607047642900F0B7
:100270000B81752900F00881782900F041817329EC
:1002800000F01983002070471FB504F06BFC9DE857
:10029000030000F0EDFD00F029FB1FBD10B500F0DC
:1002A0008EFB10BD00F0BEFB1146FFF7EDFF03F023
:1002B00097FD00F0ADFD03B4FFF7F0FF03BC00F0C5
:1002C00049FF00000948804709480047FEE7FEE76C
:1002D000FEE7FEE7FEE7FEE7FEE7FEE7FEE7FEE7F6
:1002E00004480549054A064B7047000015350008CB
:1002F000F901000818080020180E0020180A002034
:10030000180A002053EA020C00F069802DE9F04B36
:100310004FF00006002B1FBFB3FA83F503FA05F474
:1003200024FA05F65E4012BF1643B2FA82F502FACD
:1003300005F4C5F120051EBF22FA05FC44EA0C04B1
:10034000203556EA044C4FEA144418BF641C4FF0A1
:1003500000084FF00009904271EB030C39D30029DB
:1003600019BFB1FA81F701FA07F6B0FA80F700FA7F
:1003700007F6C7F120071EBF20FA07FC46EA0C0665
:100380002037B6FBF4FCA7EB0507103F07F01F0B67
:10039000CBF120060CFA0BFB2CFA06F644BFB34651
:1003A0000026202FA4BF5E464FF0000B5BEA060C30
:1003B00008BF4FF0010B19EB0B09ABFB027C48EBBC
:1003C0000608C01B06FB02CC0BFB03CC71EB0C0137
:1003D000C1E70B46024641464846BDE8F08B13B5DF
:1003E0004FF000004FF00001AFF30080BDE81C406B
:1003F000704700000FB4044910B503AA029800F03A
:100400005FFA10BC5DF814FB0C0700200FB41CB59C
:10041000074B06AA7B4469460090059800F021FA34
:100420000020694600F030FA1CBC5DF814FB0000A7
:100430007104000070B50C460546012A05D02878E5
:10044000800600D5EA69002302E0012305E05B1C79
:10045000934202D2E05C0028F9D1A869E618C01ADC
:10046000A861286A184428622846AFF3008004E097
:10047000D5E9012114F8010B9047B442F8D328467E
:10048000AFF3008070BD00002DE9F0410646002466
:1004900010687529314616A510D0AFF300800028EA
:1004A00002DA404213A507E031688A0701D512A598
:1004B00002E0490704D511A5012401E0AFF3008053
:1004C00000210A2206F1240709E0B0FBF2FCB0FB90
:1004D000F2F302FB1C00303078541846491C002807
:1004E000F3D123462A463046BDE8F04100F05BB91F
:1004F000000000002D0000002B0000002000000084
:1005000070B504460D4621461068AFF3008021887F
:10051000090502D50F4A7A4402E00E4A7A440E32A7
:10052000002104F1240305E000F00F060009965DA8
:100530005E54491C0028F7D120780023000704D519
:10054000702D02D009B1022311322046BDE870405F
:1005500000F029B97B4C00002DE9F0410F4605461B
:10056000002028622846E968884770B3252805D00E
:10057000D5E901219047286A401CF2E7E96828463E
:10058000002688476C2804460AD0682C08D04C2CDA
:1005900035D06A2C31D0742C31D07A2C2FD016E083
:1005A000E968064628468847B042044608D16C2EC2
:1005B00023D04FF480662846E9688847044606E061
:1005C0006C2E03D04FF4807601E01EE04026E4B1AB
:1005D000A4F14100192802D8203446F400663A46B6
:1005E000214628462E60FFF741FE60B1012808D061
:1005F000FF1D27F007070837B4E78026DBE7002652
:10060000D9E73F1DAEE72046B2E7286ABDE8F08192
:1006100040EA010310B59B070FD1042A0DD310C87F
:1006200008C9121F9C42F8D020BA19BA884201D9D1
:10063000012010BD4FF0FF3010BD1AB1D30703D019
:10064000521C07E0002010BD10F8013B11F8014BCF
:100650001B1B07D110F8013B11F8014B1B1B01D1EB
:10066000921EF1D1184610BD10B5431C02E010F8DF
:10067000011B71B18107FAD14FF0013202C88C1A07
:100680008C4314EAC211F9D0C01A0A0603D0C01E66
:1006900010BDC01A10BD0A0401D0801E10BD090291
:1006A000FCD0401E10BD4FF000020429C0F01280A3
:1006B00010F0030C00F01B80CCF1040CBCF1020F15
:1006C00018BF00F8012BA8BF20F8022BA1EB0C01EA
:1006D00000F00DB85FEAC17C24BF00F8012B00F8E0
:1006E000012B48BF00F8012B70474FF0000200B506
:1006F000134694469646203922BFA0E80C50A0E845
:100700000C50B1F12001BFF4F7AF090728BFA0E8F2
:100710000C5048BF0CC05DF804EB890028BF40F8BE
:10072000042B08BF704748BF20F8022B11F0804F00
:1007300018BF00F8012B70474FF0013C50F8042B14
:1007400051F8043B9A4215D1A2EB0C03934313EAF0
:10075000CC130BD150F8042B51F8043B9A4209D129
:10076000A2EB0C03934313EACC13E7D04FF0000045
:10077000704700BFD01A01BAB1FA81F101F0180137
:1007800022FA01F0CB40C1F12001DBB2C0B2C01AA5
:100790002CFA01F3D11A914311EAC311E6D1704743
:1007A0007047704770472DE9F0470D4699469246CD
:1007B000044600F124080168880604D5E06921F0A8
:1007C0001001216000E00120A84201DD471B00E08C
:1007D0000027A1697A1902EB0900081AA0612078A4
:1007E000C00602D42046AFF30080002608E0D4E91A
:1007F00001211AF806009047206A401C761C2062EE
:100800004E45F4DB2078C0060AD52046AFF30080C1
:1008100006E0D4E9012130209047206A401C206284
:10082000381EA7F10107F4DC07E0D4E9012118F82C
:1008300005009047206A401C2062281EA5F1010592
:10084000F3DC2046AFF300802078000602D50220BA
:10085000BDE8F0870120FBE701694A1C02610878C6
:10086000704700B58FB0CDE90131002105910549F0
:100870007944CDE9031011466846FFF76DFE0FB0CD
:1008800000BD0000E5FFFFFF0A6802F8010B0A60E7
:10089000704710B5436913B1AFF3008001E0FFF773
:1008A000C9FD012010BD127800F124010A70002258
:1008B0004A700122EDE711684FF0FF32E9E70000CE
:1008C000074B70B50D467B44FFF7CBFF0446284627
:1008D00000F008F810B14FF0FF3070BD204670BD39
:1008E000F7320000007B00F08000704710B54248EE
:1008F0005421FFF7FAFE41485421FFF7F6FE404825
:100900005421FFF7F2FE3F493B483C4A3F4B086009
:100910003D490A603A491960531C0365481C10653B
:10092000012008653B48344A39A1784400F0D4F9E5
:1009300020B9384878440A3800F073FA37482F4A0B
:1009400035A1784400F0C8F920B9344878440A3811
:1009500000F067FA32482A4A2FA1784400F0BCF927
:1009600020B92F4878440A3800F05BFA4023224827
:10097000DC000021224600F08CF920B125487844A3
:10098000543800F04EFA1D4822464023002100F062
:1009900080F920B121487844543800F042FA1848D0
:1009A00022461023002100F074F9002806D01C48CC
:1009B0007844BDE81040563800F033BA10BD1048F6
:1009C00070B5006D20F001040B4800F0FBF90B48F6
:1009D00000F0F8F90A4800F0F5F909E0206D20F080
:1009E0000105204600F0EEF9204600F040F82C46C4
:1009F000002CF3D170BD0000B80600200C070020C9
:100A000060070020880000208C000020900000205B
:100A10007200000050480000770000003F480000CE
:100A20002F480000754600F003FAAE4605006946FF
:100A3000534620F00700854618B020B5FFF750FC5C
:100A4000BDE820404FF000064FF000074FF00008CF
:100A50004FF0000B21F00701AC46ACE8C009ACE850
:100A6000C009ACE8C009ACE8C0098D46704770B554
:100A70000446051F00F0E0F90068002C14BF44682C
:100A800070BD002C18BFAC423CBF20466468F8D350
:100A900001680A18AA4218BF456003D12A680546B2
:100AA0001144016028684119A1421CBF6C6070BDEF
:100AB0006168696021680844286070BD2DE9F047CD
:100AC00005460C46C86820F4201040F48000C86039
:100AD000800602D5084600F0FCFAE06841F2820187
:100AE0004FF0FF390140022903D0204600F09AFA66
:100AF000B5E000F42041B1F5004F0FD1C00306D599
:100B00006168E06A884200D80846606006E02069B3
:100B1000E0626060606902F03EFEA061A0680022B1
:100B2000EEB200280DDAE1688B050AD4C043A0605C
:100B300041F490302260E0606068411C61600670A2
:100B4000A5E0E0689046226040F40050E060206933
:100B500068BB606902F025FE012704F12405A0B1FD
:100B6000A08910F4407F08D0E06900F0B0F920615E
:100B700018B1E06840F4006016E0E7612561E068C4
:100B800020F4407040F480600EE0E06900F09FF9CE
:100B900000282061F1D0E06840F4006010F4407F4C
:100BA000E06002D140F48070E06020696060E0683D
:100BB00025696FF0010AC1051FD56168E06A8842A6
:100BC00000D80846411B04D02246284600F034FADB
:100BD000F0BBE068010203D5E562C4E9015854E0C6
:100BE000691CE1626160E16940F48030491EC4E93A
:100BF000021030462E70BDE8F087010202D500F4E5
:100C000080320AE06068411C61600670E0680A2E6C
:100C100040F48030E06006D00022E16A60688142E2
:100C200003D90B4602E00122F7E70346A7895B1BC5
:100C30007F0503D4E7699F4200DDE2B1814200D81D
:100C40000146E5620F1AC4E90158002B09DD00E0F6
:100C500005E022461946284600F0EEF908B148465C
:100C6000C9E747B1A069E5626560C01BA061E068A3
:100C700040F01000E060E068000208D56168A069FB
:100C8000E562491B08446560A0615046B3E7304601
:100C9000B1E770B5C468A50713D0650211D4B2F5E9
:100CA000807F09D0B2F5007F06D0B2F5806F08D101
:100CB000012300F1240106E05D1E6FF07F46B5427E
:100CC00001D3012070BD0161C361416024F47061F2
:100CD0001143C160002070BD2DE9F0410C4607466C
:100CE0001646104600F06EF82078611C61280AD084
:100CF000722802D077283CD102E00125002405E0CB
:100D00000225042402E0082448F2020511F8010B30
:100D10002B2806D0622809D011F8010C74280AD0BB
:100D20000BE045F0030544F00204EFE745F004054D
:100D300044F00104EAE744F010043846214602F08A
:100D40003DFD411C15D00021316171604FF40071EF
:100D5000F560F1617061200704D530460222002160
:100D600000F0E4F8306D40F0010030653046BDE839
:100D7000F0810020FBE72DE9F0410D460646104CBE
:100D8000206DC10704D0410804D020F00104F7E72A
:100D900022460EE0542000F09AF807000ED0206D95
:100DA00047F001010843542120653846FFF79DFCB8
:100DB0003A4629463046BDE8F0418DE70020D6E7A7
:100DC000B80600202DE9F04704464FF000094FF027
:100DD000FF37C568D4E90486A80707D0204600F08D
:100DE00055F9304602F0CBFC002802DA3846BDE85F
:100DF000F087280502D54046FFF739FE4C212046F2
:100E0000FFF773FC206D20F0010020654846EEE7F7
:100E100010B50446AFF300802046BDE81040FFF750
:100E20004ABA10B500F07CF9BDE8104000F072B984
:100E300000487047B407002000487047BC070020F6
:100E4000704770477047704738B504460A4600201F
:100E50006946AFF30080002808BF38BD02460099FC
:100E6000204600F084F9012038BD012000F0D3B9FC
:100E7000F8B5AFF30080054600200C46102000BFF7
:100E80000646A819A0420DD9324669460020AFF3A4
:100E90000080070008BF00F0BEF90098A04218BF0C
:100EA0000546C419FFF7C8FF05600746F01D20F08E
:100EB00007004619284600F053F9B44208BFF8BDB0
:100EC000A21B31463868BDE8F84000F050B970B553
:100ED0000646FFF7B1FF056806F10B0020F0070496
:100EE000B4429CBF002070BD2B466A68BAB110683E
:100EF000A04210D304F1080188423CBF50685860FA
:100F000007D35168101941601168091B01605860CE
:100F10001460101D70BD13465268002AE7D12146A7
:100F20002846FFF791FF0028DED170BD2DE9F04182
:100F3000044616460D464769007B80072ED038468A
:100F400002F02FFC50BB3EB3012E02D0022E25D161
:100F500004E0204600F025F905441DE0384602F083
:100F60001AFCE168002841F01001E16005DA204632
:100F700000F058F80120BDE8F081C9030BD5626884
:100F8000E16A914200D81146A26911442269891A86
:100F9000814200DD08460544002D01DA0220EAE71F
:100FA000E16A6068E268814206D29103E06203D59B
:100FB00022F4003141F01002A6690027AE4213DC92
:100FC000E16A814201D90B4600E0034603EB060CBF
:100FD0002369ACEB030CAC4506DD814201D98C469C
:100FE00000E084469C4505D1A760276042F02000C0
:100FF000A5620DE0AD1BE669AE1B8142A66000D97B
:101000000846C01A281A20605819606022F0200093
:1010100003490840E060002084F84870ABE7000016
:10102000BFCFD7FFC16821F4001141F08001C1603A
:1010300000218160016070472DE9F0478146144628
:101040000E464FF0FF383248D5685769054209D03F
:101050003846A16902F0E0FB002811DB2C48C043B0
:101060000540E5602B4632464946384602F0D9FB3A
:10107000A16920F00042B21A11440028A16103D0F6
:101080002046FFF7CFFF4046BDE8F08770B5044625
:101090000569C06A6168884200D80846E16821F4A1
:1010A0002011E160C90312D5A84208D02246411B95
:1010B0002846FFF7C1FF10B14FF0FF3070BD002090
:1010C000E562C4E90150E06820F48030E06000206F
:1010D00070BD10B50446C06820F02000E060A16A31
:1010E000A06988420DD02046FFF7D0FFE06820F4C9
:1010F000405040F01000E060A06AA0612069E0620A
:10110000606044F24001E0688843E06010BD000088
:1011100010000200002801D000F01CB87047000049
:1011200010B5014602A000F05DF8012010BD0000DE
:1011300053494752545245443A2052656469726596
:1011400063743A2063616E2774206F70656E3A2075
:101150000000000001491820ABBEFEE72600020097
:1011600000210160C0E9011070471020704703465C
:1011700040688C46002818BF88423CBF0346406840
:10118000F8D318681844884207D00CF1030020F007
:101190000700001D411A521A0146081D0A60FFF798
:1011A00066BC10B50146C268900703D0900607D50B
:1011B000886A0AE000F03EF801210160881E10BD37
:1011C0008B69486818440B69C01A91F848301BB104
:1011D00091F84910401A10BD1103FCD50028FADD22
:1011E000401E10BD70B505460C460A2000E06D1C7F
:1011F00000F018F835B128780028F8D102E0641C16
:1012000000F010F814B120780028F8D1BDE8704043
:101210000A2000F007B810B500F010F8BDE8104043
:10122000FFF778BF08B569468DF800000320ABBE14
:1012300008BD704700487047B407002010B501286A
:1012400005D0002103A0FFF7CDFF012010BD09A1AB
:10125000F8E7000053494752544D454D3A204F7529
:1012600074206F662068656170206D656D6F72799E
:10127000000000003A2048656170206D656D6F7256
:101280007920636F7272757074656400FEE7704751
:1012900072B6FEE770B5044600F040F90546601CE2
:1012A00002D004480078044400F038F9401BA04202
:1012B000FAD370BD340000202DE9F84FDFF80CB2EE
:1012C000012403254FF00F0A00220BF1040E00BF8A
:1012D0000B6804FA02F63340B34278D10F7907F075
:1012E0000307012F01D0022F1AD187684FEA420964
:1012F000D1F80CC005FA09F827EA08070CFA09FC2E
:101300004CEA070CC0F808C0476891F804C0B7431E
:10131000CCF3001C0CFA02FC4CEA070CC0F804C029
:101320000E79F643B6070BD0C6684FEA420C8F68B9
:1013300005FA0CF826EA080607FA0CF73743C760E7
:101340000E7906F00306022E12D1D6084FEA427833
:1013500000EB860600960F69D6F820904FEAD86613
:101360000AFA06FCB74029EA0C063743009E3762AA
:101370000F7906684FEA420C07F0030705FA0CF8EC
:1013800007FA0CF726EA0806374307604E6816F49A
:10139000403F1CD04E4E376847F480473760366870
:1013A00022F00308970706F480460096494E3F0F47
:1013B0004644B146D6F80868DFF81C810AFA07FCF3
:1013C000404526EA0C0603D14FF0000C41E076E0E0
:1013D000DFF808C1604502D14FF0010C39E0DFF8B9
:1013E00000C1604502D14FF0020C32E0DFF8F4C0DA
:1013F000604502D14FF0030C2BE0DFF8ECC06045F4
:1014000002D14FF0040C24E0DFF8E0C0604502D1C7
:101410004FF0050C1DE0DFF8D8C0604502D14FF059
:10142000060C16E0DFF8CCC0604502D14FF0070C87
:101430000FE0DFF8C4C0604502D14FF0080C08E0AF
:10144000DFF8B8C0604502D14FF0090C01E04FF061
:101450000A0C0CFA07FC4CEA060CC9F808C84F68DD
:10146000DBF80060FF0226EA030600D51E4377463C
:10147000CBF80060D1F804C0DEF800605FEA8C2C85
:1014800026EA030600D51E43DFF840C03E60ACF1FB
:10149000040C4F68DCF80060BF0326EA030600D5A1
:1014A0001E430A4FCCF80060083FD1F804C03E68E4
:1014B0005FEACC3C26EA030600D51E433E60521C80
:1014C000102AFFF405AFBDE8F88F0000083C01408A
:1014D0004438024000300140000002400004024055
:1014E00000080240000C02400010024000140240BC
:1014F00000180240001C024000200240002402406C
:10150000426921EA02030A4043EA024181617047CD
:101510000AB1816170470904FBE700000148806857
:10152000704700003400002030B590F84120202A98
:1015300024D190F84020012A20D0012380F84030A7
:10154000242280F84120202300240268156825F019
:10155000010515600268156825F48055156002685C
:1015600015680D43156001680A6842F001020A60BF
:1015700080F8413080F84040002030BD022030BD6E
:1015800030B590F84120202A22D190F84020012A3D
:101590001ED0012380F84030242280F841202024EE
:1015A00000250268136823F00103136002681368C2
:1015B00023F4706343EA0121116001680A6842F074
:1015C00001020A6080F8414080F84050002030BDA0
:1015D000022030BD70B5040004D094F8410000250D
:1015E00010B106E0012070BD204684F8405000F0A4
:1015F000DFF8242084F841002068016821F001010F
:101600000160D4E9001020F07060086120688168F2
:1016100021F400418160E06821680128A06806D0BB
:1016200040F404408860E068022803D006E040F4FB
:101630000040F7E721684FF40060486020212068EF
:10164000114A4368134343602068C26822F4004291
:10165000C26054F8106B0DCC104340EA0320F060D8
:1016600054F81C3CD4E900021043186054F81C0DD7
:10167000026842F001020260656484F8411025634B
:1016800084F84250002070BD008000022DE9F84F20
:10169000044690F841001F469046DDF828A08B468E
:1016A00020287ED194F8400001287AD0012084F8C7
:1016B0004000FFF733FF0122064619230090D103B3
:1016C000204601F057FBE0BB0025212184F84110A2
:1016D000102084F8420065646785618DFF273248D9
:1016E0004FF00079C4F82480FF294FF080786563BB
:1016F00003D927853A46009039E0618D2185009015
:101700003AE05946204601F01DFB13E001F086FB4C
:10171000B8B9606A216800788862606A401C6062BB
:10172000608D401E6085208D401E80B22085618DB9
:1017300001B168B1608D3246514600282046E5D19E
:1017400000E002E001F043FBD0B10120BDE8F88FDA
:101750000022534680212046009601F00BFB002812
:10176000F3D1608DFF2804D927853A46009543467A
:10177000C7E7608D208500954B4694F82820C0E788
:1017800020682021094AC1612068436813404360F2
:1017900084F8411084F84250002084F84050D5E786
:1017A000FFE70220D2E700000020008000E800FEF2
:1017B00010B5AAB00446142124A8FEF796FF902184
:1017C0006846FEF792FF1849206888422AD1002413
:1017D000199400140090684600F036F908B1FFF73C
:1017E00057FD1248016841F00201016000680DF1E7
:1017F000900C122100F002002990C02004238CE8F4
:10180000130003220A48CDE9272324A9FFF754FD3A
:1018100006481030016841F400110160006800F4CE
:10182000001029902AB010BD00540040303802400A
:1018300000040240024881680278114481607047C8
:1018400034000020032010B500F0AEF80F2000F0A7
:1018500005F800F071F8002010BD000070B50D4DC6
:1018600004464FF47A700C4A29781268B0FBF1F004
:10187000B2FBF0F001F0B1F948B9102C07D2002208
:101880002146501E00F070F800206C6070BD0120F1
:1018900070BD00003400002040000020F0B5154C61
:1018A0004378211D0A1D23600378F3B143680B6060
:1018B000057BC67A817A437B2D07847B45EA0665E2
:1018C000C77B90F809C0067A90F800E045EAC1406D
:1018D00040EA834040EA444040EA074040EA0C20A6
:1018E00040EA460040EA0E0001E000200860106077
:1018F000F0BD000098ED00E0BFF35F8F04480021C9
:101900000368034A23F48033036070321160704728
:1019100024ED00E0074A40F00100064970321060F3
:10192000086840F480300860BFF34F8FBFF36F8FBB
:101930007047000024ED00E00A4808B5016841F056
:1019400080510160006800F0805000900548001D43
:10195000016841F480410160006800F4804000901B
:1019600008BD0000403802400E4BF0B41B680D4625
:10197000C3F30223C3F10706042E00D90426191D60
:10198000072901D2002300E0DB1E012404FA06F13E
:101990009C40491E2940641E994014402143F0BCDC
:1019A00001F0DCBE0CED00E0064900F0070210B5C6
:1019B0004FF6FF040868044B204040EA0220184319
:1019C000086010BD0CED00E00000FA051848F8B5FD
:1019D000016841F0805101600068164C00F08050B1
:1019E0000090206840F480302060FFF797FD4FF4AE
:1019F0007A76054605E000BFFFF790FD401BB04238
:101A00000FD86068C003F7D5206840F4003020602C
:101A1000FFF784FD054606E0FFF780FD401BB0425E
:101A200001D90320F8BD60688003F5D50020F8BD1A
:101A300040380240007000400248016841F4807163
:101A400001607047007000402DE9F84F04460078AF
:101A5000DFF824944FF000063746C0070ED0D9F8BF
:101A6000001021F40001C9F80010D9F80010626BD1
:101A70001143C9F80010606B00B90126FE4D2068C3
:101A8000843500030ED5E16B286820F4401008432C
:101A90002860E06BB0F5801F01D010B102E0012694
:101AA00000E0012720684FF4800BC0020CD5216CA8
:101AB000286820F4400008432860206C584501D174
:101AC000012601E000B901272068C10100D50126E7
:101AD000800666D5E8483830016841F080510160E1
:101AE0000068DFF898A300F080500090DAF800104A
:101AF00041F48071CAF80010FFF710FD804605E040
:101B0000FFF70CFDA0EB080064287DD8DAF8000090
:101B1000C005F5D5DFF8608308F16808D8F8000043
:101B200010F440702AD0218E01F44071814225D0FA
:101B3000D8F80010D8F8002021F4407142F4803227
:101B4000C8F80020D8F8002022F48032C8F800201D
:101B5000C8F80010D8F80000C0070FD0FFF7DEFC6F
:101B6000824607E0FFF7DAFCA0EB0A0141F2883079
:101B70008142CAD8D8F800008007F3D5206BC0F3A3
:101B8000012103297ED0D9F8001021F4F811C9F8F9
:101B90000010228ED8F80010C2F30B021143C8F8CF
:101BA00000102078C00607D5286820F080702860D3
:101BB0002868A16B084328602188AF488830490411
:101BC00005D5626E016821F440311143016021881E
:101BD000090405D5A26E016821F44021114301607A
:101BE0002168C90305D5E26E016821F44011114353
:101BF00001602168890305D5226F016821F4400145
:101C000011430160217800E034E1490605D5626C9A
:101C1000016821F00301114301602178090605D50F
:101C2000A26C016821F00C01114301602188C905F3
:101C300005D5E26C016821F0300111430160218873
:101C4000890505D5226D016821F0C00111430160AD
:101C50002188490505D5626D016821F44071114361
:101C600001602188090505D5A26D016821F4406154
:101C7000114301602188C90407D5E26D016821F490
:101C8000405100E068E0114301602188890405D5D6
:101C9000226E016821F4404111430160216849022C
:101CA00005D5A26F016821F08061114301602168B0
:101CB0004FF0006A890209D5E26F016821F00061E6
:101CC00011430160E16F514500D1012721680A07E6
:101CD00000D50127490305D5626F016821F04071E5
:101CE000114301602168090206D5D4F880200168FB
:101CF00021F08051114301602168490106D5D4F8D3
:101D00008420016821F00051114301602068000126
:101D100006D5D4F88810286820F0007008432860A1
:101D20002068C00006D5D4F88C10286820F08060A8
:101D300008432860DFF84891012E02D02068800116
:101D40007ED5D9F800004E4620F08060C9F800002A
:101D5000FFF7E4FB80460FE04A4AD9F80030104014
:101D600023F4F8120243C9F8002012E7FFF7D6FB6C
:101D7000A0EB080064287DD830680001F6D42178F3
:101D80003D487C30C90712D0616B81B9237A626803
:101D90000168D0F800C09201C1F3014142EA01425A
:101DA000CCF3036142EA016141EA037101602168F9
:101DB0000A0303D5E26BB2F5801F04D0C9021AD51D
:101DC000216C594517D16368016894F80CC002680A
:101DD0009B01C1F3014143EA0141C2F3027241EAAE
:101DE0000C6141EA027101602968626A21F01F01F9
:101DF000521E114329602168C90110D5238A6268E7
:101E00000168D0F800C09201C1F3036142EA0342C5
:101E100042EA0162CCF3027142EA01710160216879
:101E200089010CD56168228A237B94F808C0890156
:101E300041EA024141EA036141EA0C71016000E0BC
:101E400011E03168B04641F080613160FFF766FB18
:101E5000064604E0FFF762FB801B64280AD8D8F826
:101E600000000001F6D5E7B3D9F800004E4620F097
:101E7000805009E07BE0000008380240007000401C
:101E800000380240FFFCFF0FC9F80000FFF746FBD7
:101E9000074604E0FFF742FBC01B642867D83068A0
:101EA000C0438000F6D5216835480A0301D5E26BAE
:101EB0001AB1C9021DD5216CD9B963690168277EA1
:101EC00002689B01C1F3014143EA0143C2F302717D
:101ED00043EA076242EA0171016029686FF0FF037B
:101EE00000E04BE0A26A21F4F85103EB0222114317
:101EF00029602168890212D5E16F51450FD1238CE9
:101F00006269016807689201C1F3036142EA034212
:101F100042EA0162C7F3027142EA0171016021786D
:101F2000090716D561690268D0F800C08B01277FC8
:101F3000C2F30362CCF3014143EA014141EA026189
:101F400041EA077101602868E16A20F440300843E3
:101F50002860306840F080503060FFF7DFFA0446B8
:101F600008E000BFFFF7DAFA001B642802D903205B
:101F7000BDE8F88F3068C0438000F3D40020F7E755
:101F8000883802402DE9F04705000F4663D0444EE3
:101F9000306800F00F00B84209D2306820F00F001E
:101FA00038433060306800F00F00B84253D12868E1
:101FB0003C4C810712D5400703D5206840F4E0501F
:101FC00020602878000703D5206840F46040206036
:101FD000A968206820F0F000084320602878C00736
:101FE0002AD0304968680839012810D009680228C9
:101FF00010D0890700292EDA216821F0030101435E
:102000002160FFF78BFA804641F288390DE00968BC
:102010008903EFE78901EDE7FFF780FAA0EB0801FC
:10202000494502D90320BDE8F0876868216801F0BE
:102030000C01B1EB800FEFD1306800F00F00B84217
:102040000BD9306820F00F0038433060306800F062
:102050000F00B84201D00120E5E72878400705D5F8
:10206000E968206820F4E0500843206028780007E1
:1020700006D52869216821F4604141EAC00020604A
:1020800000F018F82168084AC1F30311515CC840F8
:102090000649086006480068FFF7E0FB0020C2E739
:1020A000003C0240083802406E5100084000002009
:1020B00038000020154910B51548096811F00C02C8
:1020C00013D01449042A0FD0082A0ED10F4C241F14
:1020D0002268236802F03F025B0207D52068C0F344
:1020E0008810A0FB010106E0084610BD2168C1F37D
:1020F0008811A1FB00010023FEF704F92168C1F358
:102100000141491C4900B0FBF1F010BD0838024004
:102110000024F40040787D012DE9F84F04004FF0D1
:1021200000076ED02078DFF87CA3AAF10408C0076E
:10213000A8F104054CD0DAF800105046C1F3810133
:10214000012908D00068C0F3810002280AD1D8F81C
:102150000000400206D52868800339D56068002851
:10216000DFD035E06068B0F5803F0BD010B1B0F53E
:10217000A02F11D0286820F480302860286820F42F
:10218000802002E0286840F480302860606890B1C8
:10219000FFF7C4F906460AE0286840F4802028606A
:1021A000F0E700BFFFF7BAF9801B642872D82868EF
:1021B0008003F7D50CE0FFF7B1F9064605E000BF54
:1021C000FFF7ACF9801B6428F0D828688003F7D4A7
:1021D0002078800742D5DAF80010504611F00C0F35
:1021E00008D00068C0F3810002280BD1D8F80000A5
:1021F000400207D42868800718D5E068012800D17C
:1022000014E04AE1E0680028286817D040F0010097
:102210002860FFF783F9064605E000BFFFF77EF967
:10222000801B0228C2D828688007F7D52069296852
:1022300021F0F80141EAC00028600FE020F0010021
:102240002860FFF76BF9064605E000BFFFF766F967
:10225000801B02281ED828688007F7D42078000742
:1022600029D5904861696C3000298146016812D0F7
:1022700041F001010160FFF751F9064605E000BF9A
:10228000FFF74CF9801B022804D8D9F8000080071A
:10229000F6D510E089E021F001010160FFF73EF979
:1022A000064604E0FFF73AF9801B02287DD8D9F8EA
:1022B00000008007F6D4207840076BD5DFF8E49162
:1022C00009F13809D9F80000C0000BD4D9F8001082
:1022D00041F08051C9F80010D9F80000012700F042
:1022E0008050009070480168C90512D40168834687
:1022F00041F480710160FFF711F9064605E000BF67
:10230000FFF70CF9801B64284FD8DBF80000C005EC
:10231000F6D5644EA068683601280AD008B10528B1
:1023200011D0306820F001003060306820F00400E7
:1023300002E0306840F001003060A068A0B1FFF713
:10234000EDF883460CE0306840F004003060F0E7C0
:10235000FFF7E4F8A0EB0B0141F28830814268D826
:1023600030688007F4D50EE0FFF7D8F8834607E021
:10237000FFF7D4F8A0EB0B0141F28830814258D826
:1023800030688007F4D42FB1D9F8001021F08051C3
:10239000C9F80010A069E0B3DAF80010C1F38101B8
:1023A00002294DD00228286800E042E020F0807029
:1023B000286003D0FFF7B2F804463DE0FFF7AEF81F
:1023C000064604E0FFF7AAF8801B022831D82868E7
:1023D0008001F7D4D4E90921DFF8D0C0D4E9070699
:1023E00094F830304F0894F82C1030430CEB07442D
:1023F00044EA8212104340EA016040EA0370C8F8E0
:102400000000286840F080702860FFF787F80446D5
:1024100005E044E0FFF782F8001B022809D828688D
:102420008001F7D53BE000BFFFF778F8001B0228DA
:1024300002D90320BDE8F88F28688001F4D42EE08B
:102440000128D8F8000028D0E16900F480028A420F
:1024500023D1216A00F03F028A421ED1626A47F608
:10246000C0710140B1EB821F17D1A16A4FF0FF325A
:1024700000F4403302EB5101B3EB014F0DD194F85E
:102480002C1000F07062B2EB016F06D194F830109E
:1024900000F0E040B0EB017F01D00120CAE700204E
:1024A000C8E7000008380240007000400000FFFF4D
:1024B0002DE9F04104000AD0606A002550B1256181
:1024C000C4F8145094F85D00A56248B10DE00120F5
:1024D000BDE8F0816068B0F5827FF3D0E561F1E797
:1024E000204684F85C5000F05DF8022084F85D001E
:1024F0004FF4E0622068016821F040010160E0686B
:10250000904201D9002101E04FF48051B0F5706F85
:1025100002D0904200D0A5622289A088237C02F4D8
:10252000044C277D00F4827003F00206228B40EAFF
:102530000C00237F304394F8206007F001073843F4
:10254000278D02F40072104303F038031843236808
:1025500006F08002104307F4005630431860A0696B
:10256000042394F8242001F4805194F8346003EAA1
:102570001040A78902F01002104306F00803184328
:10258000236807F470621043084358602068C169EB
:1025900021F40062C2610121256684F85D100020EB
:1025A00096E70000F0B587B0064614216846FEF7AE
:1025B0009CF830680025274A022425490326052770
:1025C000904217D122481430026842F480520260CF
:1025D000006800F480500590086840F00100086031
:1025E0000868694600F001000590E0208DE8F100E0
:1025F000194829E0194A904228D11548103002683C
:1026000042F480420260006800F48040059008684F
:1026100040F004000860086800F0040005900868B5
:1026200040F0020008600868694600F0020005906A
:1026300006208DE8F1000A48FEF73EFE4FF40050F8
:1026400069468DE8F1000748FEF736FE07B0F0BD99
:1026500030380240003001400000024000380040A5
:1026600000080240000402402DE9F84F044640688B
:1026700098460F46B0F5827F16464FF0040A4FF099
:10268000000501D1A06888B194F85C00012819D038
:10269000012084F85C00FEF741FF814694F85D005C
:1026A0004FF0000B01280FD002259AE084F85DA0BE
:1026B00013463A4620461146CDF8008000F05DF9F9
:1026C000BDE8F88F0220FBE7002F77D0002E75D0F1
:1026D000E26884F85DA0C4F860B04FF4E061C4F82B
:1026E00038B08A422764A4F83CB0C4F84CB0C4F8AF
:1026F00050B0A4F84460A4F84660A4F83EB0206846
:10270000426802D922F4805201E042F480524260D1
:10271000A068B0F5004F09D12068026822F040029D
:1027200002602068026822F4804202602068026829
:10273000520603D4026842F040020260E068884218
:102740001DD93FE020688168C9070BD0007B216C50
:102750000870206C401C2064B4F84600401EA4F8A9
:1027600046000CE0FEF7DAFEA0EB0901414503D379
:10277000B8F1FF3F03D03BE0B8F1000F38D0B4F818
:1027800046000028DED121E020688168C9070BD00F
:10279000C068216C0880206C801C2064B4F846005E
:1027A000401EA4F846000DE0FEF7B8FEA0EB0901BC
:1027B000414504D3B8F1FF3F04D019E010E0B8F16F
:1027C000000F15D0B4F846000028DDD14A46414636
:1027D000204600F01FFC08B120202066206E00B1CA
:1027E0000125012184F85D10284684F85CB067E774
:1027F0000325F6E72DE9F84F044690F85C00002722
:102800001D460128164689460DD04FF0010B84F86D
:102810005CB0FEF783FE804694F85D00BA4601285E
:1028200004D00227A3E00220BDE8F88FB9F1000F21
:1028300073D0002E71D0A2680321C4F83890A68707
:1028400084F85D10C4F860A0E687C4F840A0A4F83E
:1028500044A0A4F846A0B2F5004FC4F850A0C4F8B4
:102860004CA009D12068016821F040010160206876
:10287000016841F48041016020680168490603D481
:10288000016841F040010160E068B0F5E06F606808
:1028900023D908B1012E1CD1A06B21680088C86023
:1028A00006E020688168890709D5A16B0988C160A5
:1028B000A06B801CA063E08F401EE08709E0FEF75C
:1028C0002DFEA0EB0800A84202D3681C01D045E011
:1028D000A5B3E08F0028E4D135E008B1012E2FD157
:1028E000E08F21680128A06B02D90088C8600EE043
:1028F0000078087314E0E08722E020688168890787
:1029000014D5E18F0129A16B08D90988C160A06B9A
:10291000801CA063E08F801EEDE727E0097801733B
:10292000A06B401CA063E08F401EE4E7FEF7F6FDBD
:10293000A0EB0800A84202D3681C01D00EE06DB1E4
:10294000E08F0028D9D142462946204600F0B8FB46
:1029500008B120202066A06810B105E0032706E03A
:102960002068C16880680090206E00B1012784F85B
:102970005DB0384684F85CA056E72DE9F05F8B46E1
:1029800090F85C1000271D460A9E012992460446D5
:102990004FF001090ED0012084F85C00FEF7BEFD67
:1029A000804694F85D00616801280CD0B1F5827F03
:1029B00007D102E00220BDE8F09FA16809B9042810
:1029C00001D00227FFE0BBF1000F24D0BAF1000FC5
:1029D00021D005B394F85D00042802D0052084F8C6
:1029E0005D00A4F844500020A5874FF4E062C4F8CD
:1029F00038B0C4F840A0E16820669142E0642065E8
:102A0000A4F84650E58701D8012D06D92068416811
:102A100021F4805105E00127D5E02068416841F4A8
:102A20008051416020680168490603D4016841F083
:102A300040010160E0689042606845D908B1012D0D
:102A40003AD1A06B21680088C860A06B801CA0638D
:102A5000E08F401EE0872FE02068816889070FD54E
:102A6000E18F69B1B9F1010F0AD1A26B4FF00009F2
:102A70001188C160A06B801CA063E08F401EE087BE
:102A800020688168C9070FD0B4F8461061B1C068EA
:102A90004FF00109226C1080206C801C2064B4F877
:102AA0004600401EA4F84600FEF738FDA0EB0800E3
:102AB000B04201D3701C74D1E08F0028CCD1B4F89F
:102AC00046000028C8D175E008B1012D6BD1E08F18
:102AD00021680128A06B07D90088C860A06B801C02
:102AE000A063E08F801E06E000780873A06B401C96
:102AF000A063E08F401EE08755E020688168890769
:102B00001AD5E18FC1B1B9F1010F15D1E18F0129BA
:102B1000A16B07D90988C160A06B801CA063E08FFE
:102B2000801E06E009780173A06B401CA063E08F53
:102B3000401EE0874FF0000920688168C90728D04F
:102B4000B4F8461029B3B4F84610012914D9C06866
:102B5000216C0880206C801C2064B4F84600801E24
:102B6000A4F84600B4F84600012810D8206841684F
:102B700041F4805141600AE0007B216C0870206CB8
:102B8000401C2064B4F84600401EA4F846004FF0F4
:102B90000109FEF7C3FCA0EB0800B04202D3701C91
:102BA00001D018E0BEB1E08F0028A6D1B4F84600ED
:102BB0000028A2D142463146204600F081FA10B1E9
:102BC000202020660127012084F85D00002138467E
:102BD00084F85C10EFE60327F5E7401EB0F1807F34
:102BE00010B501D3012010BD4FF0E02460610F212A
:102BF000601700F0B3FD0020A0610721216110BD26
:102C0000FEE701688A69D243920701D400228A62F2
:102C100000688169C943C90703D0816941F0010196
:102C2000816170472DE9F047044600688A464FF0FD
:102C3000000917464FF020084D464E468169C906E7
:102C400048D51021C16136E0BAF1FF3F33D0FEF71D
:102C500065FCC01B504502D8BAF1000F2BD120688B
:102C6000426894F84210836902F48042DB431B04FB
:102C70001CD4B2F5804F19D0202917D0416841F4F7
:102C800080414160FEF74AFC07460FE0FEF746FC34
:102C9000C01B19280AD9626C012542F02002626427
:102CA00084F8418084F8429084F8409020688069DC
:102CB000C0438006EAD420688069C043800602D5FC
:102CC000002DC1D003E015B92168C1F81C80012591
:102CD00046F0040621688869C20505D54FF4807264
:102CE000CA6146F00106012541050AD52168800523
:102CF0004FF4806246F00806CA614FF0010502D425
:102D00000AE0800507D5216801254FF4007046F0E0
:102D10000206C86100E085B12046FFF772FF216816
:102D2000074F4A683A404A60616C3143616484F8F5
:102D3000418084F8429084F840902846BDE8F087AE
:102D400000E800FE70B50068C1F3090141EA0241E4
:102D5000074D049C19434FF480664268214306EAFC
:102D600054532B439A4321F000410A43426070BD03
:102D7000FF63FF032DE9F0411D4617460E4604464A
:102D8000DDF8188008E0681C06D0FEF7C7FBA0EB52
:102D90000800A8420BD855B12068806936EA0000C7
:102DA00013D00020B842EED00020BDE8F081626C64
:102DB000002084F84000202142F02002626484F860
:102DC000411084F842000120EFE70120EAE770B5E6
:102DD00016460D4604460DE0324629462046FFF7CA
:102DE00021FF08B1012070BDFEF798FB801BA842AF
:102DF00007D835B120688069C0438006ECD4002034
:102E000070BD626C002084F84000202142F0200256
:102E1000626484F8411084F84200E3E770B5164616
:102E20000D4604460FE0324629462046FFF7FAFEDB
:102E300008B1012070BD681C05D0FEF76FFB801B38
:102E4000A84207D835B120688069C0438007EAD41A
:102E5000002070BD626C002084F84000202142F008
:102E60002002626484F8411084F84200E1E7000027
:102E700007490968C9070AD0054980390968C9079F
:102E800005D04FF060410A68002AFCD008707047F6
:102E9000800E00E070B586B014216846FDF725FC71
:102EA0001E48016841F004010160016801F004015D
:102EB0000591016841F080010160016801F0800125
:102EC0000591016841F001010160016801F0010113
:102ED0000591016841F00201016000680022104E76
:102EE0004FF4E05100F0020005903046FEF710FB71
:102EF0000124694600254FF4A0508DE8310030468A
:102F00000395FEF7D9F9E0026946CDE90004CDE961
:102F100002453046FEF7D0F906B070BD30380240A9
:102F2000000402401248002110B5104C0123114A40
:102F30000460C0E90121C0E9033141618161C161DF
:102F40000162FEF747FB08B172B6FEE708480021B0
:102F5000FEF7EAFA08B172B6FEE705480021FEF76F
:102F60000FFB002801D072B6FEE710BD00540040F0
:102F7000940400206847402070B511484FF4E06485
:102F800000210E4E4FF482751023C0E90214016136
:102F90007215E0E805650724082580E80E00C16089
:102FA0000161C0E90514C0E907150548FFF780FA7B
:102FB000002801D072B6FEE770BD0000003001406D
:102FC000E004002070B510484FF440730D4D00210F
:102FD0004FF482746A15C0E9021301610723C0E946
:102FE0000054C0E90512C161082401624162C0E9D0
:102FF0000A13C0E90C14FFF75BFA002801D072B67F
:10300000FEE770BD0038004044050020FEE7FEE703
:10301000704700002DE9F843044640684FF482767B
:103020001546B04289464FF400474FF4806815D1E9
:10303000A068B84201D0404507D12068016821F05E
:10304000400101606068B04208D100224B468021F7
:103050002046009500F0E2F820BB12E0174A4FF43A
:103060007A7115481268B2FBF0F04843009040B105
:10307000401E009020688068C043000601D400987C
:10308000F5E76068B04214D1A068B84201D040456D
:103090000FD100224B464FF4C0612046009500F04E
:1030A0004FF830B1206E40F0200020660320BDE8CC
:1030B000F8830020FBE7000000366E01400000208E
:1030C000F8B515460E4604460B464FF4C051009223
:1030D000002200F035F840BB17484FF47A71174AC8
:1030E0000068B0FBF2F0484300906068B0F5827F62
:1030F00008D10022334680212046009500F08EF84A
:1031000098B908E0009830B1401E009020688068AF
:10311000C0430006F6D5002233464FF4C061204676
:10312000009500F00DF8002804D0206E40F020003B
:1031300020660320F8BD00004000002000366E012C
:103140002DE9FE4F984617460E4604460C9D4FF05B
:10315000000A8DF804A0FEF7E1F9411BA8EB010578
:10316000FEF7DCF981462C484FF4C06B01682068FB
:10317000C1EBC1010C30029001EB8100000D6843EE
:1031800042E05E4506D12FB9029800788DF8040020
:103190009DF80400B8F1FF3F37D0FEF7BFF9A0EB70
:1031A0000900A84203D215B1009858B32BE020685B
:1031B000416821F0E00141606068B0F5827F0BD189
:1031C000A068B0F5004F02D0B0F5806F04D1206840
:1031D000016821F040010160A06AB0F5005F09D1EB
:1031E0002068016821F4005101602068016841F401
:1031F00000510160012184F85D10032084F85CA077
:10320000BDE8FE8F0025401E009020688068304099
:10321000B842B6D10020F3E7400000202DE9F84382
:103220001E46914688460446089DFEF777F9401BE6
:10323000351AFEF773F9074625480068C0F3CB300E
:10324000684338E0701C37D0FEF768F9C01BA8420D
:1032500003D215B1009860B32CE02068416821F0DA
:10326000E00141606068B0F5827F0BD1A068B0F5E5
:10327000004F02D0B0F5806F04D12068016821F0C2
:1032800040010160A06AB0F5005F09D120680168C3
:1032900021F4005101602068016841F4005101608F
:1032A000012184F85D10002084F85C000320BDE853
:1032B000F8830025401E00902068816838EA0100EC
:1032C00004D000214945BDD10020F0E70121F9E7F4
:1032D000400000201CB500216422019102238DF8DA
:1032E000050078210248009201AAFEF7CFF91CBD23
:1032F00094040020AE2010B5FFF7ECFFD520FFF7B7
:10330000E9FF8020FFF7E6FFA820FFF7E3FF1F207B
:10331000FFF7E0FFD320FFF7DDFF0020FFF7DAFF24
:103320004020FFF7D7FF8D20FFF7D4FF1420FFF7D1
:10333000D1FF2020FFF7CEFF0020FFF7CBFFA12019
:10334000FFF7C8FFC820FFF7C5FFDA20FFF7C2FF6D
:103350000220FFF7BFFF8120FFF7BCFFC820FFF767
:10336000B9FFD920FFF7B6FFF120FFF7B3FFDB204D
:10337000FFF7B0FF4020FFF7ADFFA420FFF7AAFF43
:10338000A620FFF7A7FFAF20FFF7A4FFBDE810407E
:103390006420FDF77FBF812010B5FFF79BFF7F20E2
:1033A000FFF798FFA420FFF795FFA620FFF792FFF5
:1033B000AE20FFF78FFFA320FFF78CFF0020FFF761
:1033C00089FF4020FFF786FF0020FFF783FF1020D2
:1033D000FFF780FF2020FFF77DFF0220FFF77AFF35
:1033E0002120FFF777FF0020FFF774FF2220FFF76F
:1033F00071FF0020FFF76EFFB020FFF76BFF40204A
:10340000FFF768FFA020FFF765FFA820FFF762FF26
:103410003F20FFF75FFFC020FFF75CFFD320FFF7DF
:1034200059FF0020FFF756FFDA20FFF753FF122065
:10343000FFF750FFD520FFF74DFF8020FFF74AFF31
:10344000D920FFF747FF2220FFF744FFDB20FFF7DB
:1034500041FF2020FFF73EFF8D20FFF73BFFBDE837
:1034600010401020FFF736BF7047FEF7E3B90000A9
:1034700030B593B034216846FDF737F914210DA813
:10348000FDF733F9FEF7D8FA2048016841F0805182
:103490000160006800F0805012901D48016841F4FE
:1034A00040410160006800250DF1200C02240094C9
:1034B0000822D823CDE9064500F4404012908CE85C
:1034C0001C0010210B9401200C94CDE903016846E7
:1034D000FEF722FE08B172B6FEE7FEF777FA08B1F2
:1034E00072B6FEE74FF480524FF4A0510F20CDE9A1
:1034F00010120DAA072182E831000DA8FEF742FD47
:10350000002801D072B6FEE713B030BD403802404B
:10351000007000400248016841F47001016070478A
:1035200088ED00E0FEE700000A464FF0FF33014659
:103530000148FFF799B80000E004002008B5012118
:103540006846FFF7F1FF9DF8000008BD0A464FF0FE
:10355000FF3301460148FFF74DB90000E0040020A9
:1035600001B501216846FFF7F1FF08BD70B50B4DAD
:103570004FF48054002221462846FDF7C9FF05205C
:10358000FDF788FE012221462846FDF7C1FFBDE870
:1035900070404FF47A70FDF77DBE000000040240D9
:1035A000024800224FF40061FDF7B2BF0004024060
:1035B00001220248D102FDF7ABBF00000004024027
:1035C000F8B5144C0546E068804760698047616A39
:1035D000C5F30740C5F3072699B1A26A8AB18DF8F1
:1035E000000003218DF8016068468DF80250904775
:1035F000E06980470546A0698047206980472846E2
:10360000F8BD216A8847216A30468847216AE8B2B6
:103610008847EDE75C0000202DE9F8431A4C054689
:1036200017468846E068804760698047616AC5F34D
:103630000740C5F30726A1B1A26A92B18DF8000038
:1036400003218DF8016068468DF802509047626A48
:10365000394640469047A069804720698047BDE8C9
:10366000F883216A8847216A30468847216AE8B290
:103670008847002505E0E06980476A1C08F80500D6
:1036800095B2BD42F7D3E6E75C000020F8B5164CD2
:1036900005460E46E068804760698047A26A45F0AB
:1036A00004058AB1280C8DF80000290A8DF8011054
:1036B00004218DF8025068468DF803609047A06998
:1036C000804720698047F8BD216AC5F307408847D5
:1036D000216AC5F307208847216AE8B28847216A32
:1036E00030468847EBE700005C000020F8B51A4C34
:1036F000054616460F46E068804760698047A26A23
:1037000045F004059AB1280C8DF80000290A8DF8BF
:103710000110032168468DF802509047A26A314695
:1037200038469047A069804720698047F8BD216AE4
:10373000C5F307408847216AC5F307208847216AF7
:10374000E8B28847002504E0216A785D88476D1C4F
:10375000ADB2B542F8D3E5E75C00002009070028C8
:103760004FEA116104DB00F1E02080F8001470479B
:1037700000F00F0000F1E02080F8141D70476FF496
:103780000041401804D0012803D0022801D00814B9
:103790007047002070476FF40041401800D00020AF
:1037A00070476FF40041401805D0012802D002286C
:1037B00001D00020704701207047000070B5040060
:1037C0004FF0FF3511D020783A280ED10CA12046B9
:1037D000FCF7B2FF58B10CA12046FCF7ADFF48B191
:1037E0000BA12046FCF7A8FF38B1284670BD48F26F
:1037F000010070BD48F2020070BD48F2030070BDC8
:103800003A535444494E00003A5354444F555400DF
:103810003A535444455252006FF400421114084682
:10382000704713466FF4004210B50C46111480180F
:1038300003D0012803D0022808D0084610BD63B188
:1038400014F8010BFFF714FB5B1EF8E72BB114F81B
:10385000010BFFF70DFB5B1EF8E7002010BD000019
:1038600070B50828044602D94FF0FF3070BD4FF400
:10387000847000EB441010210546FFF707FF28462F
:10388000FFF79EFE0028FAD14FF402701F2100EBD3
:103890004410FFF7FBFE0D4801210022A1404FF428
:1038A0004275438805EB44158B43438083888B43E3
:1038B0008380074820F814200448801D02552846BC
:1038C000FFF77EFE0028FAD1012070BD44000020E1
:1038D000A806002000B50849002087B000F00EF8C7
:1038E0000120694600F00AF8034917226846FCF7F0
:1038F0008FFE07B000BD00001C00002010B5062898
:103900000C461ED2DFE800F003070B101418204607
:1039100000F0F6FF13E0204600F064FF0FE020788F
:10392000BDE8104001F018B800F088FF207006E0F4
:10393000204601F023F802E0204600F082FF00203C
:1039400010BD4FF0FF3010BD2DE9F0410C4602468E
:1039500000214F1E0846102A4FF498554FF4A056E8
:1039600063D2DFE802F0080B17131A1E222C36452B
:10397000484C5950555C01F01AF84DE014B104F16F
:1039800008012046BDE8F04100F06FBF208800F03C
:10399000EBFE41E000F009FF05E0208800F0A2FF07
:1039A0003AE000F011FF208036E02088010A284626
:1039B000FFF76CFE21783046FFF768FE2CE03046BA
:1039C000FFF7FEFD06462846FFF7FAFD06EB00204E
:1039D000E9E7174882782270C27862700279A27093
:1039E0004279E27082792271C0796071A17113E02D
:1039F00001F056F810E0204601F067F80CE0204690
:103A000001F00FF808E02078BDE8F04101F082B83D
:103A100001F039F805E020700020BDE8F08101F0E8
:103A200027F8C0B241B2491CF5D13846F5E700008D
:103A30005C00002070B50828044602D94FF0FF3022
:103A400070BD600101250830FFF7BAFD00F00F00DE
:103A5000012801D0A81F70BD4FF4847000EB441002
:103A600008210646FFF712FE3046FFF7A9FD0028A1
:103A7000FAD11248A5408188A94381804088054237
:103A80000CD0002070BD2846FFF79AFD00070DD529
:103A90002046FFF7E5FE6FF00C0070BD4FF4027199
:103AA0004FF4427001EB441500EB44163046FFF72B
:103AB00087FD0028E7D1012070BD000044000020F0
:103AC00070B50B4D082406460DE0300606D5688813
:103AD000AA8801B2288800B200F054F871066888FC
:103AE0000E0E401C6880601EC4B2EED270BD000095
:103AF0000000002030B5084C054609E06088A28827
:103B000001B2208800B200F03DF82088401C2080DF
:103B1000681E85B2F2D230BD000000202DE9F041D0
:103B20000D4C0746884608462688658800F016F83A
:103B30006088401E60803846FFF7DCFF26803846EC
:103B40006580FFF7D7FF2088401E20804046BDE8F3
:103B5000F04100F003B800000000002030B5084C30
:103B6000054609E06088A28801B2208800B200F012
:103B700009F86088401C6080681E85B2F2D230BDB2
:103B80000000002070B5CC170C4D012301EB5476DA
:103B900001F00704F11003FA04F300EBC11000EB8D
:103BA000050101F1010022B1012A05D1497819432B
:103BB00001E049789943017070BD00009400002035
:103BC0008A68002A01DCFCF779BF521E8A604A68C5
:103BD000C0B2531C4B60107070472DE9F04142F2A7
:103BE000086242F20871002602EB401501EB401416
:103BF0002846FFF7E5FC07462046FFF7E1FC00EB0F
:103C0000072007043F0C09D02846FFF7D9FC0646D9
:103C10002046FFF7D5FC00EB062086B2BE42E7D176
:103C20003046BDE8F0812DE9F04142F2080242F24F
:103C30000811002602EB401501EB40142846FFF75F
:103C4000BFFC07462046FFF7BBFC00EB072007043C
:103C50003F0C09D02846FFF7B3FC06462046FFF785
:103C6000AFFC00EB062086B2BE42E7D13046BDE88D
:103C7000F081000070B508281546044602D94FF0BF
:103C8000FF3070BD600108300D296FF0040667D267
:103C9000DFE801F0070C11141E27663744484C5327
:103CA0005D00FFF78DFC00F0F00002E041F20860DB
:103CB0003EE0287049E041F2085039E041F2083016
:103CC00000EB4410FFF77CFC064641F2082011E0AF
:103CD00040F608402946042200EB4410FFF79CFC04
:103CE00033E041F2081000EB4410FFF769FC064690
:103CF00041F2080000EB4410FFF762FC06EB0020E5
:103D000022E0FFF75DFC00F00F00012826D142F60B
:103D1000087000EB4410FFF753FC15E02046FFF756
:103D200082FF11E02046FFF758FF0DE04FF442708C
:103D300000EB4410FFF744FCBBE7FFF741FCC00772
:103D4000F0D1094830F814002880012070BDFFF739
:103D500037FC012802D00548005DAAE7304670BD57
:103D60006FF0010070BD0000A80600204A0000208E
:103D700070B50828044602D94FF0FF3070BD6001CD
:103D80000830FFF71DFC00F00F00012802D06FF093
:103D9000040070BD4FF4427000EB44100546FFF77D
:103DA0000FFC132802D06FF0020070BD4FF4847036
:103DB00000EB441002210646FFF768FC3046FFF78F
:103DC000FFFB0028FAD12846FFF7FAFB142805D09C
:103DD0002046FFF745FD6FF0030070BD012070BD68
:103DE0008AB000240094019402940394FDF784FDAA
:103DF00001208DF80C001F218DF8081087228DF806
:103E000009208DF80D008DF8000068468DF80A40F5
:103E10008DF80E408DF8014001948DF80B408DF81F
:103E20000F40FDF73BFD0420FDF774FDFDF70AFD93
:103E3000FFF71EFBFFF72EF8FFF79EF8FFF7C2F81B
:103E4000FFF770F8FFF792FB7649774800F08CFA9D
:103E50007649774800F09AFA7649774800F0ACFA4C
:103E600076A30DF1100C0FCB8CE80F00012004A9F4
:103E7000FFF76AFD71A1D1E90001CDE9080108A9A8
:103E8000084600F0F2FCFFF725FDFFF784FAFFF784
:103E900031FA012000F034FB6C4CD4E9010100F050
:103EA0003BFBC820FFF716FAA120FFF713FA00F03A
:103EB000C9FB0021084600F029FB20218020FFF7E4
:103EC0002DFE0521012000F021FB61A000F0B8F9D2
:103ED00000F0C0FB624F4FF4427541F288388021F8
:103EE0003846FDF70DFB5FA0FCF784FA002342463D
:103EF0000121184600F018FB10F0FF01217003D0DB
:103F00005EA0FCF777FA02E064A0FCF773FA0020E9
:103F1000FFF72EFFC1B22170012903D067A0FCF783
:103F200069FA06E06DA0FCF765FA02E00A20FDF7E9
:103F3000B1F92846FFF744FB1428F7D02846FFF7CD
:103F40003FFB014669A0FCF755FA2846FFF738FB0E
:103F5000172802D06FA0FCF74DFA0421002002AA16
:103F6000FFF788FE0521002003AAFFF783FEBDF8B6
:103F70000C109DF80B009DF80A309DF80920CDE942
:103F800000019DF8081069A0FCF734FA76486FA18B
:103F9000FCF73CFA7448FCF767FB82B272490020D8
:103FA00000F020FA704971A0FCF724FA1AE06E497B
:103FB0007F220020803100F065F96B4A71A106462E
:103FC00069488032FCF722FA6748FCF74DFB82B261
:103FD0006549002000F006FA63496DA03246803141
:103FE000FCF708FA2846FFF7EBFA172816D0002648
:103FF0002846FFF7E5FA162812D000200643D6D14E
:104000000020FFF717FD0020FFF72AFC68A0FCF74F
:10401000F1F94FF47A70FDF73DF960E70126E7E723
:104020000120EBE7B1350008A13500086135000833
:104030003D3500084D35000829350008020202020E
:104040000202020202020202020202021000002028
:10405000547261636B205465737420562E310000D6
:10406000000402404372656174696E6720736F6378
:104070006B65742E2E2E0D0A00000000736F636BAB
:1040800065742829206661696C65642C20636F64FF
:1040900065203D2025640D0A00000000536F636B0E
:1040A000657420637265617465642C20636F6E6E45
:1040B000656374696E672E2E2E0D0A006C69737429
:1040C000656E2829206661696C65642C20636F64C5
:1040D00065203D2025640D0A000000006C697374A2
:1040E000656E2829204F4B0D0A000000496E70753F
:1040F0007420636F6E6E656374696F6E2120736FD9
:10410000636B6574207374617465203D2025780DA0
:104110000A0000004572726F7220736F636B6574E2
:10412000207374617475730D0A00000049503A20C1
:104130002025642E25642E25642E25642020504FD2
:1041400052543A2025750D0A00000000436F6E6E30
:10415000656374656420746F20534F4B4F4C20424D
:104160004F58210D0A000000A805002073656E64F9
:10417000656420746F20636C69656E743A202573E2
:104180000D0A00006563686F3A2025730D0A000070
:10419000636D642066726F6D20636C69656E743A3E
:1041A0002025732C2062203D2025780D0A00000078
:1041B000436C6F73696E6720736F636B65742E0D4C
:1041C0000A0000002DE9F04F1C49A1F1080ACB8834
:1041D000BAF800B0BAF80250DC08B3EBC40F00D054
:1041E000641C89464FF0000810FB04F28888504395
:1041F00087B21FE000260FE0D9F80000C05DFFF78E
:104200005FFCBAF800107F1C761C491CAAF800104D
:10421000BFB2AAF80250B6B2B9F80410B142EBD856
:104220000835ADB2AAF8025008F10101AAF800B0B1
:104230001FFA81F8A045DDD3BDE8F08F080000200B
:104240002DE9F04306460E48002400F10809804697
:10425000478805880FE07F2800D80446E0B2FFF7C2
:10426000B1FFA8F802706D1CB9F80410761C29443F
:104270008DB2A8F8005030780028ECD1BDE8F0836A
:10428000000000202DE9F74F08281446054603D901
:104290004FF0FF30BDE8FE8F680101260830FFF7C0
:1042A0008FF900F00F00012801D0B01FF2E724B30E
:1042B00041F6086000EB4510FFF782F94FF6FF71F9
:1042C00001EA8020A04200D20446DFF898A04FF413
:1042D000427041F6087106FA05F900EB451801EB4A
:1042E000451B2846FFF779FC06464046FFF768F96C
:1042F000172816D01C2803D00DE06FF00D00C9E779
:10430000CEB92846FFF78FFC07465846FFF758F905
:10431000B7EB802F05D12846FFF7A2FA6FF0060011
:10432000B8E7BAF8021019EA010F02D01EB900204E
:10433000B0E7002ED5D0A64200D2344601992246DD
:10434000284600F0ADF94FF4847000EB4510402191
:104350000546FFF79BF92846FFF732F90028FAD106
:10436000204697E744000020054A18B111B1C2E980
:104370000501704703485061034890617047000091
:104380005C000020A9470008A7470008074A10B5AD
:1043900013889C05FDD518B111B1C2E9070110BD04
:1043A0000348D0610348106210BD00005C0000208B
:1043B000A7490008AD490008074A10B513889C05B5
:1043C000FDD518B111B1C2E9090110BD0348506211
:1043D0000348906210BD00005C000020A549000861
:1043E000AB4900082DE9F05F082815468B460646C4
:1043F00003D94FF0FF30BDE8F09F70010124083071
:10440000FFF7DEF800F00F00012801D0A01FF2E74F
:1044100075B14FF4427000EB46100746FFF7D0F835
:1044200017286FF0060A06D01C2804D05046E2E791
:104430006FF00D00DFE7DFF8C480B440B8F8040087
:10444000044213D04FF4027000EB46108146FFF790
:10445000B7F800F01F00C10624D510214846FFF729
:1044600015F9B8F80410A143A8F8041041F6087033
:1044700000EB4610FFF7A4F84FF6FF7101EA802029
:10448000854200D905463046FFF7CDFB81463846C8
:10449000FFF796F817280DD01C280BD03046FFF7F1
:1044A000DFF9C3E700070BD53046FFF7D9F96FF006
:1044B0000C00A0E7B8F80200044203D04D4501D932
:1044C000002098E74D45DED82A465946304600F090
:1044D00017F94FF4847000EB461020210646FFF7D1
:1044E000D5F83046FFF76CF80028FAD1B8F8041078
:1044F00028460C43A8F804407DE700004400002053
:10450000014988807047000000000020014A1080A7
:104510005180704700000020024A0B0C106091800F
:10452000D3807047080000202DE9F84308281D4675
:1045300017460E46044603D94FF0FF30BDE8F88316
:10454000012E08D0022E0ED0032E0CD0042E0AD03D
:104550006FF00400F2E7042269464FF47060FFF741
:104560005BF8009848B169076FF00500E6D49DB18B
:10457000012E05D0022E0FD106E06FF00200DDE71C
:1045800015F0210FDAD007E0A90601D52906D5D507
:10459000E90601D52906D1D52046FFF761F960016A
:1045A0004FF0010805F0F00131430830FFF76EF8D5
:1045B000224E57B93788781C80B23080A0F57F41F1
:1045C000F03902D14FF4404030804FF48160390A15
:1045D00000EB4410FFF75AF84FF4A16000EB4410D1
:1045E000F9B2FFF753F84FF4847000EB4410012147
:1045F0000746FFF74BF83846FEF7E2FF0028FAD1EE
:10460000718805F0010308FA04F0A34081430B43CD
:104610007380B18800224FF4427581430848B1800D
:1046200005EB441520F814200448801D0255284647
:10463000FEF7C6FF0028FAD060B27FE744000020F2
:10464000A806002002484FF48061FCF72CB8000057
:104650009400002038B521204FF48064FEF73AFE24
:104660000020FEF737FE7F20FEF734FE2220FEF703
:1046700031FE0020FEF72EFE0720FEF72BFE064936
:10468000402064222346087000920A46034878219D
:10469000FCF7FCFF38BD00009400002094040020CB
:1046A0002DE9F0475FEA02088946064626D042F621
:1046B000081000EB46152846FEF782FF074642F633
:1046C000080000EB46142046FEF77AFF07EB0020B7
:1046D000424687B24946380200EB46101830FEF7D2
:1046E0009BFF07EB080086B22046310AFEF7CEFF9B
:1046F0002846F1B2BDE8F047FEF7C8BFBDE8F08735
:104700002DE9F0475FEA02088946064626D042F2C4
:10471000085000EB46152846FEF752FF074642F2C6
:10472000084000EB46142046FEF74AFF07EB002046
:10473000424687B24946380200EB46101030FEF779
:10474000D5FF07EB080086B22046310AFEF79EFF30
:104750002846F1B2BDE8F047FEF798BFBDE8F08704
:1047600000787047017070472DE9F041050A00F0AC
:10477000F0014FF4A850FEF789FF002401264FF402
:10478000027700BF06FA04F0284204D01F2107EB8D
:104790004410FEF77BFF641CE4B2082CF2D3BDE8A2
:1047A000F08170477047704770474FF4A85010B5BC
:1047B000FEF706FF00F0F0044FF4B850FEF700FFDC
:1047C00004EB002080B210BD4FF4B05010B5FEF7DE
:1047D000F7FE04464FF4C050FEF7F2FE04EB002053
:1047E00080B210BD10B50622044601464FF4106099
:1047F000FEF712FF042204F10E019001FEF70CFFF8
:10480000042204F10A014FF4A060FEF705FF042220
:10481000A11D4FF47060FEF7FFFE07480178A174F8
:104820004178E17481782175C07860750248401E36
:104830000078A07510BD0000550000200020FEF794
:10484000BFBE70B504464FF4D850FEF7B9FE2070D5
:104850004FF4D050FEF7B4FE05464FF4C850FEF7B3
:10486000AFFE05EB0020608070BD2DE9F041002413
:104870000D46064600F09BF84FF0FF38AEB100221F
:10488000B05C204444B2102C17DC521C52B2082AEF
:10489000F6DB002441F6087707EB4410315DFEF7A4
:1048A000F5FE641C64B2082CF6DBCDB1002108468D
:1048B0002A5C114449B2102902DD4046BDE8F0816E
:1048C000401C40B20828F3DB002441F6086606EBE2
:1048D0004410295DFEF7DAFE641C64B2082CF6DB96
:1048E0000020EBE710B5040AC1B24FF4B050FEF758
:1048F000CDFE2146BDE810404FF4C050FEF7C6BEC5
:1049000010B50622044601464FF41060FEF7EEFE95
:10491000042204F10E019001FEF7E8FE042204F1E6
:104920000A014FF4A060FEF7E1FE0422A11D4FF43E
:104930007060FEF7DBFE0748A17C0170E17C4170EE
:10494000217D8170617DC1700249A07D491E087082
:1049500010BD00005500002010B5044630F03A00AC
:1049600002D04FF0FF3010BD0020FEF729FE40EAD4
:1049700004010020FEF78AFE002010BD10B501786A
:1049800004464FF4D850FEF781FE6088010A4FF4C8
:10499000C850FEF77BFEA1784FF4D050BDE8104020
:1049A000FEF774BE70470020704770477047F0B53F
:1049B00085B04FF41064694606222046FEF72CFEAF
:1049C000042202A995012846FEF726FE4FF4A066B0
:1049D0000422304603A9FEF71FFE4FF4706704223D
:1049E000384604A9FEF718FE80210020FEF74EFE8F
:1049F0000020FEF7E5FD062269462046FEF776FE1A
:104A00000422284602A9FEF771FE0422304603A9BB
:104A1000FEF76CFE0422384604A9FEF767FE05B0D7
:104A2000F0BD10B504464FF43850FEF7C9FDC0F391
:104A3000801121700122002100F03800202811D0BF
:104A400038280FD0617010280ED018280CD02028DC
:104A50000AD0A170082809D0182807D0202805D02E
:104A6000E17010BD6270EEE7A270F3E7E27010BD76
:104A700010B500244FF43850FEF7A2FDC00700D057
:104A80000124204610BD10B500244FF43850FEF725
:104A900097FDC0F3C200062800D10124204610BDB6
:104AA00010B54FF438542046FEF78AFD20F08001FF
:104AB0002046FEF7EBFD2046FEF782FD40F0800128
:104AC0002046BDE81040FEF7E1BD10B50278002198
:104AD000012A00D140214278012A06D0C27880788C
:104AE000012A05D001280BD00CE041F0380109E083
:104AF000012802D041F0080104E041F0180101E072
:104B000041F010014FF43850FEF7C0FDBDE81040F1
:104B1000FFF7C6BF70B54FF4385604463046FEF76F
:104B20004FFD41064FF0FF351AD5012C20F038001B
:104B300010D040F038013046FEF7A8FDFFF7B0FF77
:104B40003046FEF73DFD012C07D000F0380038B1AB
:104B5000002070BD40F03001EDE700F03000F6E7D6
:104B6000284670BD4FF04070E1EE100A704700001B
:104B70000000000000000000000000000000000035
:104B80000000000000000000000000000000000025
:104B90000000000000000000000000000000000015
:104BA0000000000000000000000000000000000005
:104BB00000000000000000000000000000000000F5
:104BC00000000000000000000000000000000000E5
:104BD00000000000000000000000000000000000D5
:104BE00000000000000000000000000000000000C5
:104BF00000000000000000000000000000000000B5
:104C000000000000000000000000000000000000A4
:104C10000000000000000000000000000000000094
:104C20000000000000000000000000000000000084
:104C30000000000000000000000000000000000074
:104C40000000000000000000000000000000000064
:104C50000000000000000000000000000000000054
:104C60000000000000000000000000000000000044
:104C70000000000000000000000000000000000034
:104C80000000000000000000000000000000000024
:104C90000000000000000000000000000000000014
:104CA0000000000000000000000000000000000004
:104CB00000000000000000000000000000000000F4
:104CC00000000000000000000000000000000000E4
:104CD00000000000000000000000000000000000D4
:104CE00000000000000000000000000000000000C4
:104CF00000000000000000000000000000FF0000B5
:104D00000000004000000000C040800000000000E3
:104D10000000111FF113FD10C00000C00000007062
:104D2000DFFEC3000040E0C0800088730418618289
:104D3000C0000000804043A4B8E40303804040402A
:104D400080C00000E0000000000000000000000043
:104D500000FF0000000000E00000000000FF000075
:104D6000000000E000000040F0F040000000000003
:104D700000000002020702020000008000000000A4
:104D800000000000000060000000000002020202BB
:104D900000000000000000000000000000000040D3
:104DA000000000030C30C000E00000000000007FA5
:104DB00080807F00008040408000000020207F0035
:104DC00000000000C0000040838C700000C0404024
:104DD00040000088887C070000404040800007F9C0
:104DE00001070100000000C000000000F88888876B
:104DF0000000404040803F4888880C078040404089
:104E0000408000C080809FE0000000C00000077864
:104E10008888780780404040408000788484857E80
:104E20000000404080000000001100000000000071
:104E3000000000000004000000000060000000000E
:104E40000303040400000000808000050505050040
:104E50000000000000000000040203010000808048
:104E6000000040808F887000000040000000617FDB
:104E7000A1A1BF4180804040404000073AE21E01AE
:104E800000C0000000C000FF8888780700C04040D4
:104E9000408000007F80808000008040404000FF14
:104EA00080807F0000C0404080000000FF88888034
:104EB0000000C04040400000FF8888880000C0001B
:104EC0000000007F80888F0000804040C00000FF0D
:104ED0000808FF0000C00000C000000000FF000044
:104EE000000000C0000000000000FF000040404043
:104EF000800000FF081C638000C0000000C00000AC
:104F0000FF0000000000C0404040FF60181860FF34
:104F1000C000000000C000FF3C03FF0000C0000014
:104F2000C000007F80807F0000804040800000FF44
:104F30008484780000C000000000007F8082817FB0
:104F400000804040408000FF8685780000C00080DF
:104F500040000060988482410040404040800080D2
:104F600080FF8080000000C0000000FF0000FF0004
:104F700000804040800000F807011EE0000000C0F3
:104F800000000307180E013FC0000000C00000C071
:104F9000330C33C000C0000000C000C0300F30C070
:104FA000000000C0000000818698E08000C0404002
:104FB0004000000000FF8000000000E02000C03042
:104FC0000C03000000000000C020000000FF0000F3
:104FD000000020E0000000000000000000000000D1
:104FE0000000000000000000001010101010000071
:104FF0000080000000000000000000001F101F00E3
:105000000000C040C0400000FF101F000000C04072
:10501000C00000001F1010100000C0404040000001
:105020001F10FF000000C040C00000001F121E0043
:105030000000C04040000010FF9000000000C000D1
:10504000000000001F101F000000C848F80000000A
:10505000FF101F000000C000C0000000009F000003
:10506000000000C000000000009F0000000008F8E1
:1050700000000000FF0708100000C000C040000052
:10508000FF0000000000C04000001F10101F101F94
:10509000C00000C000C000001F101F000000C000C2
:1050A000C00000001F101F000000C040C000000032
:1050B0001F101F000000F840C00000001F101F005C
:1050C0000000C040F80000001F1010080000C000E1
:1050D000000000001C121110000040404080001031
:1050E000FF1000000000C000000000001F001F00B3
:1050F0000000C040C00000001E010F10000000C0F2
:1051000000001F010E07001F00C00000C0000000CB
:1051100018070D100000C000804000001F000F1095
:10512000000008F00000000011121C100000C04038
:105130004040000004FF8000000000E0200000006C
:1051400000FF0000000000C00000000080FF04001D
:10515000000020E000000002020202000000000047
:10516000000000000000000000000000000000003F
:1051700000000000000001020304060708093A537A
:105180005444494E003A5354444F5554003A5354F2
:105190004445525200303132333435363738394194
:1051A000424344454640305800303132333435367E
:1051B000373839616263646566403078000000000A
:1051C000E0510008000000209400000034020008B4
:1051D0007452000894000020840D00005002000862
:1051E00000000000000000000000000000000000BF
:1051F000000000006E4B000806000D000C29AB7C7F
:105200000402C0A80071FFFFFF00C0A80001C0A8F1
:10521000000101000100000010000000000000007B
:105220000024F40000C000000000000000000000A6
:1052300000000000000000000000000001025735DF
:105240003530300000000000A3470008A5470008E3
:10525000A9470008A74700086147000865470008FC
:10526000000000000000000000000000000000003E
:04527000000000003A
:04000005080001F9F5
:00000001FF
